:020000040000FA
:100000000C9458000C9480000C9480000C94800098
:100010000C9480000C9480000C9480000C94800060
:100020000C9480000C9480000C9480000C94800050
:100030000C9480000C9480000C9480000C94800040
:100040000C9437090C9480000C94A7090C94810936
:100050000C9480000C9480000C9480000C94800020
:100060000C94D9090C9480000000000025002800A1
:100070002B00040404040404040402020202020229
:10008000030303030303010204081020408001025C
:1000900004081020010204081020000000080002DB
:1000A0000100000304070000000000000000F80A3F
:1000B00011241FBECFEFD8E0DEBFCDBF11E0A0E01E
:1000C000B1E0E8E5F3E202C005900D92A63AB1076F
:1000D000D9F723E0A6EAB1E001C01D92AE31B20724
:1000E000E1F710E0C8E5D0E004C02197FE010E94CE
:1000F0007010C735D107C9F70E94310B0C94AA11B3
:100100000C94000090E0FC01E656FF4F2491FC01A6
:10011000EA57FF4F3491FC01EE58FF4FE491EE2374
:10012000C9F0222339F0233001F1A8F4213019F16C
:10013000223029F1F0E0EE0FFF1FE859FF4FA591A3
:10014000B4918FB7F894EC91611126C030953E239D
:100150003C938FBF08952730A9F02830C9F0243090
:1001600049F7809180008F7D03C0809180008F7758
:1001700080938000DFCF84B58F7784BDDBCF84B5DB
:100180008F7DFBCF8091B0008F778093B000D2CF6E
:100190008091B0008F7DF9CF3E2BDACF8230910570
:1001A00038F0880F991F880F991F05970197F1F76D
:1001B00008953FB7F8948091150290911602A0918E
:1001C0001702B091180226B5A89B05C02F3F19F061
:1001D0000196A11DB11D3FBFBA2FA92F982F8827C7
:1001E000BC01CD01620F711D811D911D42E0660FA2
:1001F000771F881F991F4A95D1F708958F929F9274
:10020000AF92BF92CF92DF92EF92FF924B015C01CF
:100210000E94D9006B017C010E94D9006C197D09F4
:100220008E099F09683E734081059105A8F321E07E
:10023000821A9108A108B10888EEC80E83E0D81E82
:10024000E11CF11C81149104A104B10429F7FF9071
:10025000EF90DF90CF90BF90AF909F908F900895D8
:1002600008950895AF92BF92CF92DF92EF92FF92DE
:100270000F931F93CF93DF936C017B018B01040FCE
:10028000151FEB015E01AE18BF08C017D10759F06A
:100290006991D601ED91FC910190F081E02DC601AC
:1002A0000995892B79F7C501DF91CF911F910F91A6
:1002B000FF90EF90DF90CF90BF90AF900895FC013A
:1002C000538D448D252F30E0842F90E0821B930BBB
:1002D000541710F0CF96089501970895FC01918D61
:1002E000828D981761F0A28DAE0FBF2FB11D5D9664
:1002F0008C91928D9F5F9F73928F90E008958FEF06
:100300009FEF0895FC01918D828D981731F0828DB9
:10031000E80FF11D858D90E008958FEF9FEF089510
:10032000FC01918D228D892F90E0805C9F4F821B74
:1003300091098F739927089589E692E00E949001B0
:1003400021E0892B09F420E0822F089580E090E0DD
:10035000892B29F00E949C0181110C9400000895C2
:10036000FC01A48DA80FB92FB11DA35ABF4F2C912A
:10037000848D90E001968F739927848FA689B78921
:100380002C93A089B1898C91837080648C93938D18
:10039000848D981306C00288F389E02D80818F7DBB
:1003A00080830895EF92FF920F931F93CF93DF9373
:1003B000EC0181E0888F9B8D8C8D98131AC0E889A1
:1003C000F989808185FF15C09FB7F894EE89FF8970
:1003D0006083E889F98980818370806480839FBF0E
:1003E00081E090E0DF91CF911F910F91FF90EF900E
:1003F0000895F62E0B8D10E00F5F1F4F0F7311271E
:10040000E02E8C8D8E110CC00FB607FCFACFE88958
:10041000F989808185FFF5CFCE010E94B001F1CF2F
:10042000EB8DEC0FFD2FF11DE35AFF4FF0829FB7CC
:10043000F8940B8FEA89FB8980818062CFCFCF93BC
:10044000DF93EC01888D8823B9F0AA89BB89E889FC
:10045000F9898C9185FD03C0808186FD0DC00FB6A2
:1004600007FCF7CF8C9185FFF2CF808185FFEDCF20
:10047000CE010E94B001E9CFDF91CF910895209184
:10048000E701260F3327331F21323105ECF4209189
:100490003F02FC0190E080E0243069F082E00895A2
:1004A000A091E7012191AC0149535E4FA40FB52FF4
:1004B000B11D2C930196861798F38091E701680F80
:1004C0006093E70180E0089581E0089510923F0273
:1004D00081E080933E021092190261E082E10E9465
:1004E000820061E083E10E948200E9EBF0E080811C
:1004F0008E7F808380818D7F808388E48093B800A5
:1005000085E48093BC000895CF93DF9391E09093AE
:10051000C6018823B9F0C091B800D091BA0080918B
:10052000BC008A7B8093BC0060E082E10E94820074
:1005300060E083E10E9482000E946602D093BA00CC
:10054000C093B800DF91CF9108958F929F92AF92A0
:10055000BF92CF92DF92EF92FF920F931F93CF93B0
:10056000DF93D0916802D13208F0D7C0182FC09124
:1005700067020E94D9006B017C0180913F028111CA
:100580006BC082E080933F0210933E028FEF809316
:100590003D0210923C02D0933B02A7E4B2E0EBE1B3
:1005A000F2E080E0D81391C010921A0280911A02F2
:1005B000CC0FC82BC0931A0280911902813009F028
:1005C00088C0109219020E94D9006B017C018091B1
:1005D0001A028093BB008091410290914202A09147
:1005E0004302B0914402892B8A2B8B2BA1F00E94ED
:1005F000D9000091410210914202209143023091B2
:1006000044026C197D098E099F09061717072807F0
:10061000390708F442C08091BC0083FDD8CF85EC37
:100620008093BC000E94D9006B017C0180913F0245
:10063000823009F450C080913D028F3F09F46FC0B1
:1006400080913D02803209F46CC080913D0280337C
:1006500009F469C084E026C0809141029091420271
:10066000A0914302B0914402892B8A2B8B2B09F471
:1006700084CF0E94D9008090410290904202A090C5
:100680004302B09044026C197D098E099F098616B9
:100690009706A806B90608F070CF809140020E9424
:1006A000840285E010924602109268021092450280
:1006B000DF91CF911F910F91FF90EF90DF90CF903E
:1006C000BF90AF909F908F9008959D9191938F5F71
:1006D00069CF85EEA5CF8091410290914202A09111
:1006E0004302B0914402892B8A2B8B2B09F49ECFB5
:1006F0000E94D900009141021091420220914302D0
:10070000309144026C197D098E099F09061717075D
:100710002807390708F08ACFC0CF81E0C3CF80E037
:10072000C1CF82E0BFCF83E0BDCF0895E0910F023B
:1007300080910E02E81730F4F0E0EA55FE4F808118
:1007400090E008958FEF9FEF089590910F028091B0
:100750000E022FEF3FEF981748F4E92FF0E0EA552B
:10076000FE4F208130E09F5F90930F02C9010895F2
:1007700080910E0290910F02891B990B0895CF92E0
:10078000DF92EF92FF920F931F93CF93DF937C0141
:10079000CB018A0120914502222389F0EB016B01F4
:1007A000C40ED51ECC15DD0569F06991D701ED9118
:1007B000FC910190F081E02DC7010995F3CF642FE2
:1007C0000E943F02C801DF91CF911F910F91FF90CE
:1007D000EF90DF90CF900895CF93DF931F92CDB726
:1007E000DEB76983209145022223F9F02091680247
:1007F000203258F021E030E0FC013383228390E086
:1008000080E00F90DF91CF91089580914602E82F0C
:10081000F0E0E95BFD4F998190838F5F8093460202
:100820008093680281E090E0ECCF61E0CE01019618
:100830000E943F02F7CF90E080E00895FC0183859D
:100840008F3F19F061E00C9482000895FC018081D3
:100850009181892B39F0A281B3819C9111968C9161
:100860009CBD8DBD83858F3F19F060E00C948200A4
:100870000895BF92CF92DF92EF92FF920F931F9352
:10088000CF93DF93EC0188819981892B81F06EBD34
:100890000DB407FEFDCF0EB5802FDF91CF911F91D4
:1008A0000F91FF90EF90DF90CF90BF9008958885D3
:1008B000998511E0892B09F010E8BB24B394862FA9
:1008C000812309F0B12CF62E2C813D814E815F8170
:1008D00060E271EA87E090E00E944310E22E00E0BF
:1008E000C22ED12CEE2019F0C6010E94CE008A85BE
:1008F000982F977F09F044C08D858F3F89F09F2DF9
:10090000912381E009F480E08B1551F0EF85F8899F
:100910008F89992379F19081892B8083BB24B394AB
:10092000E989FA898081998D892B8083EE2019F0DD
:10093000C6010E94CE008E858F3F39F0EB89FC897D
:100940008081988D892309F0012BE989FA899081AA
:10095000898D80958923808388859985892B09F0E5
:1009600067C0110F1111BECF8E858F3F09F094CF54
:100970000F2D92CF9081809589238083B12CD0CF89
:100980008C3099F58D858F3F49F0EF85F8898F89F7
:100990009F2D912331F19081892B8083E989FA89F8
:1009A0009081898D809589238083EE2019F0C6017E
:1009B0000E94CE00E989FA898081998D892B8083F4
:1009C000EE2019F0C6010E94CE008E858F3F21F2E5
:1009D000EB89FC898081988D892309F4BDCF012B97
:1009E000BBCF908180958923D8CFE989FA8980810E
:1009F000998D892B8083EE2019F0C6010E94CE00CC
:100A00008D858F3F49F0EF85F8898F899F2D912340
:100A100059F09081892B8083E989FA899081898DA9
:100A2000809589238083D1CF908180958923F3CFCE
:100A3000169598CF8F929F92AF92BF92CF92DF92EE
:100A4000EF92FF920F931F93CF93DF937C014B01A3
:100A50006A01B22EA32E0E942604E401C80CD91C00
:100A6000CC15DD0569F4CB2DDA2D0C0F1D1FC01739
:100A7000D10759F06FEFC7010E9439048993F7CF6E
:100A80006991C7010E943904EBCFC7010E941E047F
:100A900081E0DF91CF911F910F91FF90EF90DF9058
:100AA000CF90BF90AF909F908F9008958F929F921C
:100AB000AF92BF92CF92DF92EF92FF920F931F936C
:100AC000CF93DF937C01B62EA72E6A0149010E94C5
:100AD0002604E401080D191DC017D10761F4CB2DC0
:100AE000DA2DCC0EDD1ECC15DD0551F06991C70164
:100AF0000E943904F8CF6991C7010E943904ECCFF4
:100B0000C7010E941E0481E0DF91CF911F910F91D8
:100B1000FF90EF90DF90CF90BF90AF909F908F901D
:100B200008951F93CF93DF93EA01122FDC011196F2
:100B30008D919C91DC01ED91FC910280F381E02D7F
:100B40000995C817D90729F4812F0E94A50291E0C1
:100B5000811190E0892FDF91CF911F910895CF935C
:100B6000DF93EC018B818823A1F0888191E0909341
:100B7000450280936702109246021092680281E05B
:100B80000E94A50291E0811190E0892FDF91CF9121
:100B9000089510920F0210920E02109246021092C7
:100BA00068020E94660280E391E090930D028093B8
:100BB0000C0281E391E090930B0280930A0281E0A2
:100BC0008B83CE010E94AF05982F8111CECFDDCF50
:100BD000FC0101900020E9F73197AF01481B590B48
:100BE000BC0189E692E00C9432018F929F92AF9201
:100BF000BF920F931F93CF93DF93CDB7DEB7A1972B
:100C00000FB6F894DEBF0FBECDBF19A2423008F474
:100C10004AE08E010F5D1F4F842E912CB12CA12C28
:100C2000A50194010E944310E62FB901CA01EA30E0
:100C3000F4F4E05DD801EE938D01232B242B252BBA
:100C400079F790E080E0109719F0CD010E94E80557
:100C5000A1960FB6F894DEBF0FBECDBFDF91CF9146
:100C60001F910F91BF90AF909F908F900895E95C76
:100C7000E1CFCF93DF930E94E805EC018AE291E097
:100C80000E94E8058C0F9D1FDF91CF9108954F9230
:100C90005F926F927F928F929F92AF92BF92CF920C
:100CA000DF92EF92FF920F931F93CF936B017C0122
:100CB000742EAC019B010E943E10882399F08DE2B6
:100CC00091E0CF911F910F91FF90EF90DF90CF9027
:100CD000BF90AF909F908F907F906F905F904F905C
:100CE0000C94E80546015701E894B7F82FEF3FEF61
:100CF0004FE75FE7C501B4010E943E1081110DC0AE
:100D00002FEF3FEF4FE75FE7C501B4010E94740E7C
:100D100018161CF481E391E0D4CF2FEF3FEF4FE79B
:100D20005FE4C701B6010E94CC0F18161CF485E3DE
:100D300091E0C7CF2FEF3FEF4FE75FECC701B60160
:100D40000E94740E87FDF3CF20E030E0A901C701B7
:100D5000B6010E94740E10E000E087FF0AC06DE249
:100D600089E692E00E94D2018C01F7FAF094F7F83C
:100D7000F094C0E060E070E080E09FE37C1641F01A
:100D800020E030E040E251E40E94790ECF5FF6CFE0
:100D9000A70196010E94080E2B013C010E94EB0E58
:100DA0004B015C014AE00E94F5057C01E00EF11E5A
:100DB000CC23C1F1C501B4010E941A0F9B01AC0103
:100DC000C301B2010E94070E4B015C016EE289E68D
:100DD00092E00E94D201E80EF91EC15018F120E005
:100DE00030E040E251E4C501B4010E94D10F2B0173
:100DF0003C010E94EB0E4B01B12CA12C4AE0C50135
:100E0000B4010E94F505E80EF91EC501B4010E9467
:100E10001A0F9B01AC01C301B2010E94070E4B01E6
:100E20005C01DBCFC701CF911F910F91FF90EF9035
:100E3000DF90CF90BF90AF909F908F907F906F90FA
:100E40005F904F9008952F923F924F925F926F92D2
:100E50007F928F929F92AF92BF92CF92DF92EF924A
:100E6000FF920F931F93CF93DF9300D000D01F9278
:100E7000CDB7DEB77C01DC011A960C914C01BDE0C8
:100E80008B0E911CFC019085818599838A8320803B
:100E900031802114310409F424C1438550E0D1018B
:100EA00014968D919C9115978417950708F48CC121
:100EB0008C9191E0909345028093670210924602D4
:100EC0001092680220E0BE016F5F7F4FC1010E9457
:100ED0009105882309F478C1E02FF0E0FC83EB83CF
:100EE000B12CA12C01E08B819C81A816B90608F0D9
:100EF00019C1D10114968D919C91CB80DC80CA18C8
:100F0000DB088C159D0508F46C01F101F081FD836F
:100F10000E94D9002B013C0180913F02811172C0D7
:100F20001C2D113208F010E200933F0221E08B816A
:100F30009C818C199D09A816B90608F420E020931D
:100F40003E028FEF80933D0210923C02810F80930E
:100F50003B0200931A0290911A028D81880F892B0F
:100F600080931A0280911902813009F091C0109289
:100F700019020E94D9002B013C0180911A02809332
:100F8000BB008091410290914202A0914302B09136
:100F90004402892B8A2B8B2BA1F00E94D90020912F
:100FA000410230914202409143025091440264193F
:100FB000750986099709261737074807590708F45E
:100FC00042C08091BC0083FDD8CF95EC9093BC00CB
:100FD0000E94D9002B013C0180913F02813009F42D
:100FE0005BC080913C02811710F410913C02EBE150
:100FF000F2E0A6EAB1E080E0811751F191919D9372
:101000008F5FFACF8091410290914202A0914302FA
:10101000B0914402892B8A2B8B2B09F47DCF0E943F
:10102000D9002091410230914202409143025091F7
:101030004402641975098609970926173707480776
:10104000590708F069CF809140020E94840210E0A5
:1010500010920F0210930E021C151D0409F0B4C06B
:1010600034016A0C7B1C2301C201861997098C1577
:101070009D05A0F5F10181819281DC01ED91FC914A
:101080000284F385E02D0995F20181932F01ECCFC5
:10109000A5EEA093BC009CCF8091410290914202AA
:1010A000A0914302B0914402892B8A2B8B2B09F427
:1010B00093CF0E94D9002091410230914202409189
:1010C000430250914402641975098609970926174D
:1010D00037074807590708F07FCFB5CFAC0CBD1CC8
:1010E00002CFD7010280F381E02D309709F44AC086
:1010F00016962D913C91179710E01B964C9150E05D
:101100002330310579F5816089839A834F5F5F4F82
:101110009401BE016F5F7F4FCF010E941A058823A3
:1011200009F452C0D7011A964C9150E030E020E00B
:1011300060E070E0CB01241735070CF048C0982F11
:10114000872F762F6627D7011C96EC91E11137C0C7
:10115000FA01E21BF30BEE0DFF1DE4856E2B2F5FF2
:101160003F4FE9CF2115310519F490689983D0CF0D
:101170002230310511F49F77F9CF2130310541F646
:10118000906CF4CFF701A481B5811097E9F018961F
:101190008C9118978823C1F01496CD90DC90159708
:1011A000C114D10489F010E094014385BE016F5F42
:1011B0007F4F19968D919C91F6010995B0CFF7015B
:1011C000E20FF31FE585CACF6FEF7FEFCB010F90E2
:1011D0000F900F900F900F90DF91CF911F910F9173
:1011E000FF90EF90DF90CF90BF90AF909F908F9047
:1011F0007F906F905F904F903F902F90089585ED76
:101200008093BC008091410290914202A0914302E0
:10121000B09144020796A11DB11D23E0B695A79594
:10122000979587952A95D1F72091BC0024FD03C09E
:1012300010923F0208954091410250914202609104
:10124000430270914402452B462B472B69F30097CC
:10125000A105B10541F02AE22A95F1F700C00197F6
:10126000A109B109E1CF809140020C9484021F9240
:101270000F920FB60F9211242F933F938F939F934A
:10128000AF93BF938091110290911202A09113022B
:10129000B09114023091100223E0230F2D3758F53E
:1012A0000196A11DB11D209310028093110290930D
:1012B0001202A0931302B093140280911502909130
:1012C0001602A0911702B09118020196A11DB11D3E
:1012D0008093150290931602A0931702B093180200
:1012E000BF91AF919F918F913F912F910F900FBE22
:1012F0000F901F90189526E8230F0296A11DB11D8F
:10130000D2CF1F920F920FB60F9211242F933F93BB
:101310004F935F936F937F938F939F93AF93BF93FD
:10132000EF93FF9389E692E00E94B001FF91EF9165
:10133000BF91AF919F918F917F916F915F914F91ED
:101340003F912F910F900FBE0F901F9018951F92F5
:101350000F920FB60F9211242F938F939F93EF93B9
:10136000FF93E0917902F0917A028081E0917F020F
:10137000F091800282FD1BC09081809182028F5F7C
:101380008F7320918302821741F0E0918202F0E096
:10139000E759FD4F958F80938202FF91EF919F91C6
:1013A0008F912F910F900FBE0F901F9018958081F5
:1013B000F4CF1F920F920FB60F9211242F933F93E9
:1013C0004F935F936F937F938F939F93AF93BF934D
:1013D000EF93FF938091B900887F803609F44AC06B
:1013E000F0F5883209F4A7C018F5803109F49BC0E4
:1013F000B8F4882309F4F9C0883009F494C0FF9147
:10140000EF91BF91AF919F918F917F916F915F917C
:101410004F913F912F910F900FBE0F901F901895F5
:10142000883109F488C0803251F780933D0214C09E
:10143000803409F49DC040F48033B9F38833F9F661
:1014400080933D0285ECB0C0803509F485C08835B5
:1014500009F496C0883499F60E94FF08D0CF8839E5
:1014600009F48CC038F5883729F050F4883611F02B
:10147000803729F683E080933F021092090257C01B
:10148000883809F47BC0803919F0803809F0B7CF6B
:1014900080910902803208F071C0E091090281E078
:1014A0008E0F809309028091BB00F0E0E751FE4F60
:1014B00080833DC0803B39F0E0F4803A09F479C084
:1014C000883A09F09CCF84E080933F021092E801B3
:1014D0001092E701E0910C02F0910D0209958091C4
:1014E000E70181110FC081E08093E7011092C701ED
:1014F00009C0803C09F4A6CF883C09F4A3CF883BFF
:1015000009F07DCFE091E80181E08E0F8093E80142
:10151000F0E0E953FE4F80818093BB009091E80199
:101520008091E70129C080911A028093BB0085EC6D
:101530008093BC0064CF90913C0280913B0298174D
:1015400058F5E0913C0281E08E0F80933C02F0E080
:10155000E55EFD4F8081E9CFE0913C0281E08E0F96
:1015600080933C028091BB00F0E0E55EFD4F8083FC
:1015700090913C0280913B029817C8F285E8D8CF41
:10158000E0913C0281E08E0F80933C028091BB0091
:10159000F0E0E55EFD4F808380913E0281115CCFDB
:1015A00081E08093190284EA8093BC0010923F028C
:1015B00026CF85EC8093BC0010923F0280910902F7
:1015C000803230F4E0910902F0E0E751FE4F1082E2
:1015D0006091090270E0E0910A02F0910B0289EE3D
:1015E00091E00995109209020ACF10923D0234CF82
:1015F000E9E6F2E01382128288EE93E0A0E0B0E028
:1016000084839583A683B7832AE031E031832083E6
:1016100025EC30E03587248724EC30E037872687B7
:1016200020EC30E0318B208B21EC30E0338B228BAF
:1016300022EC30E0358B248B26EC30E0378B268B88
:10164000118E128E138E148EE6E0F3E01382128256
:1016500084839583A683B7838CE191E09183808313
:101660000895CF93DF93CDB7DEB765970FB6F894A3
:10167000DEBF0FBECDBF789484B5826084BD84B5D3
:10168000816084BD85B5826085BD85B5816085BD7D
:1016900080916E00816080936E0010928100809135
:1016A00081008260809381008091810081608093BD
:1016B0008100809180008160809380008091B100E2
:1016C00084608093B1008091B00081608093B0000D
:1016D00080917A00846080937A0080917A008260A1
:1016E00080937A0080917A00816080937A00809163
:1016F0007A00806880937A001092C100E0917902AC
:10170000F0917A0202E00083E0917502F091760296
:101710001082E0917702F091780280E1808310924C
:101720008102E0917D02F0917E0286E08083E0916B
:101730007B02F0917C02808180618083E0917B025A
:10174000F0917C02808188608083E0917B02F0913F
:101750007C02808180688083E0917B02F0917C0232
:1017600080818F7D808389E391E00E94390686E045
:1017700090E00E9485107C0180E4D7018C9386E084
:1017800093E012969C938E93119713961C92139745
:1017900080E290E015969C938E931497F092190333
:1017A000E092180310920F0210920E02109246025D
:1017B000109268020E94660280E391E090930D020D
:1017C00080930C0281E391E090930B0280930A02D4
:1017D00011E0F7011383C7010E94AF05882309F4C4
:1017E00011C285E190E00E9485107C01A090180351
:1017F000B0901903DC0151961D921D921D921C920E
:1018000054971196BC92AE9213961C921E92129708
:101810001B961C931B978FEF90E019969C938E93C9
:1018200018971C961C931C971A960C9385E190E0D0
:101830000E9485106C01FC01118A128A138A148A95
:10184000B182A0821382128213878EEF90E091877B
:1018500080871487028784E090E00E948510FC0155
:10186000F182E0828CE0828384E08383C6010E945F
:101870002307693474458105910509F0C3C1C70187
:101880000E942307B4E09695879577956795BA955A
:10189000D1F77F70882799276732724081059105BB
:1018A00009F0B0C185E190E00E9485107C01C090F4
:1018B0001803D0901903DC0151961D921D921D92C0
:1018C0001C9254971196DC92CE9213961C921E9203
:1018D00012971B961C931B9719961C921E92189791
:1018E0001C961C931C971A960C9390931303809349
:1018F000120385E190E00E948510FC01118A128A92
:10190000138A148AD182C08213821282138786E0DE
:1019100090E09187808714870287F0931503E09306
:10192000140385E190E00E948510FC01118A128A5F
:10193000138A148AD182C08213821282138787E0AD
:1019400090E09187808714870287F0931703E093D4
:101950001603C7010E942307AB01BC015068F701C1
:101960002285253008F04CC0418B528B638B748BE1
:10197000C22ED12CEC0DFD1DC701EE15FF0589F01F
:10198000D7011C962C9121110AC0DC011D964C93A5
:10199000452F562F672F772701963197EECF448733
:1019A000F7CF7F01BDE0EB0EF11C90858185998317
:1019B0008A83A080B180A114B10409F4DCC003853E
:1019C00010E098012C0D3D1DF50184819581821751
:1019D0009307B0F081819281208131E030934502FC
:1019E00020936702109246021092680201151105B9
:1019F00009F0B1C021E0A601B701C5010E9491051F
:101A000062E070E080E090E00E94FE008EE491E0F1
:101A10000E94390611E0EE24E394F12C02E092E0FA
:101A2000C92ED12C23E0A22EB12C30E0832E30E041
:101A3000932E8AE791E00E94E80580911803909127
:101A400019031A8A1B8A1C8A1D8A9A8389831C821D
:101A50001B821C87FA86E9861D870B87CE010196BB
:101A60000E942307072E000C880B990B0E941C0F65
:101A700020E030E040EA5FE30E94D10F42E00E94A4
:101A8000470684E891E00E94390688E891E00E94C8
:101A9000E80580911803909119031A8A1B8A1C8A01
:101AA0001D8A9A8389831C821B821C87DA86C986D9
:101AB0001D870B87CE0101960E9423070E941A0FF3
:101AC00020E030E040EA5FE30E94D10F42E00E9454
:101AD000470686E991E00E9439068AE991E00E9472
:101AE000E80580911803909119031A8A1B8A1C8AB1
:101AF0001D8A9A8389831C821B821C87BA86A986C9
:101B00001D870B87CE0101960E9423079B01AC0124
:101B1000AAE0B0E00E9465100E941A0F42E00E9405
:101B2000470682EA91E00E9439068AE291E00E942B
:101B3000E80568EE73E080E090E00E94FE0081140A
:101B4000910409F476CF0E949C01882309F471CF97
:101B50000E9400006ECFDC01ED91FC910280F381C8
:101B6000E02DA801BE016F5F7F4F09950817190787
:101B700009F046CF3FCFA281B381109731F1268182
:101B80003781038510E02330310571F48E7F89831E
:101B90009A830F5F1F4F9E012F5F3F4FA601B70132
:101BA000CD010E9456052CCF2115310519F49F77E0
:101BB0009983F1CF2230310511F49068F9CF2130AB
:101BC000310549F79F779064F3CFA481B5811097D1
:101BD00009F416CF438518968C911897882309F439
:101BE0000FCF1696ED91FC911797309709F408CF17
:101BF00086019701BE016F5F7F4F19968D919C9171
:101C00000995FECE80E691E00E943906FFCF50583C
:101C1000BB27AA270E941F0E0C94920F0E94840FCC
:101C200038F00E948B0F20F039F49F3F19F426F40E
:101C30000C94810F0EF4E095E7FB0C947B0FE92FD9
:101C40000E94A30F58F3BA1762077307840795071A
:101C500020F079F4A6F50C94C50F0EF4E0950B2E48
:101C6000BA2FA02D0B01B90190010C01CA01A001EE
:101C70001124FF27591B99F0593F50F4503E68F149
:101C80001A16F040A22F232F342F4427585FF3CF8A
:101C9000469537952795A795F0405395C9F77EF45B
:101CA0001F16BA0B620B730B840BBAF09150A1F0A4
:101CB000FF0FBB1F661F771F881FC2F70EC0BA0F2A
:101CC000621F731F841F48F4879577956795B795B2
:101CD000F7959E3F08F0B0CF9395880F08F09927AD
:101CE000EE0F9795879508950E94570F08F481E0AD
:101CF00008950E948D0E0C94920F0E948B0F58F045
:101D00000E94840F40F029F45F3F29F00C947B0F70
:101D100051110C94C60F0C94810F0E94A30F68F30D
:101D20009923B1F3552391F3951B550BBB27AA2794
:101D300062177307840738F09F5F5F4F220F331FCE
:101D4000441FAA1FA9F335D00E2E3AF0E0E832D096
:101D500091505040E695001CCAF72BD0FE2F29D099
:101D6000660F771F881FBB1F261737074807AB076B
:101D7000B0E809F0BB0B802DBF01FF2793585F4FE0
:101D80003AF09E3F510578F00C947B0F0C94C60FEF
:101D90005F3FE4F3983ED4F3869577956795B795C2
:101DA000F7959F5FC9F7880F911D9695879597F9CD
:101DB0000895E1E0660F771F881FBB1F6217730746
:101DC0008407BA0720F0621B730B840BBA0BEE1F5B
:101DD00088F7E09508950E94AB0F88F09F5798F020
:101DE000B92F9927B751B0F0E1F0660F771F881F20
:101DF000991F1AF0BA95C9F714C0B13091F00E943A
:101E0000C50FB1E008950C94C50F672F782F882770
:101E1000B85F39F0B93FCCF3869577956795B39560
:101E2000D9F73EF490958095709561957F4F8F4FCF
:101E30009F4F0895E89409C097FB3EF490958095D4
:101E4000709561957F4F8F4F9F4F9923A9F0F92F80
:101E500096E9BB279395F695879577956795B795FE
:101E6000F111F8CFFAF4BB0F11F460FF1BC06F5FE4
:101E70007F4F8F4F9F4F16C0882311F096E911C0F6
:101E8000772321F09EE8872F762F05C0662371F017
:101E900096E8862F70E060E02AF09A95660F771F2B
:101EA000881FDAF7880F9695879597F90895990F07
:101EB0000008550FAA0BE0E8FEEF16161706E80714
:101EC000F907C0F012161306E407F50798F0621B35
:101ED000730B840B950B39F40A2661F0232B242B0A
:101EE000252B21F408950A2609F4A140A6958FEF29
:101EF000811D811D089597F99F6780E870E060E07B
:101F000008959FEF80EC089500240A941616170692
:101F100018060906089500240A94121613061406DA
:101F200005060895092E0394000C11F4882352F03D
:101F3000BB0F40F4BF2B11F460FF04C06F5F7F4FF5
:101F40008F4F9F4F089557FD9058440F551F59F0DC
:101F50005F3F71F04795880F97FB991F61F09F3F96
:101F600079F087950895121613061406551FF2CFBF
:101F70004695F1DF08C0161617061806991FF1CF0F
:101F800086957105610508940895E894BB27662736
:101F90007727CB0197F908950E94570F08F48FEF28
:101FA00008950E94E40F0C94920F0E94840F38F061
:101FB0000E948B0F20F0952311F00C947B0F0C9452
:101FC000810F11240C94C60F0E94A30F70F3959FEC
:101FD000C1F3950F50E0551F629FF001729FBB2720
:101FE000F00DB11D639FAA27F00DB11DAA1F649FBC
:101FF0006627B00DA11D661F829F2227B00DA11D6F
:10200000621F739FB00DA11D621F839FA00D611DF4
:10201000221F749F3327A00D611D231F849F600D15
:10202000211D822F762F6A2F11249F5750409AF03E
:10203000F1F088234AF0EE0FFF1FBB1F661F771FCA
:10204000881F91505040A9F79E3F510580F00C9495
:102050007B0F0C94C60F5F3FE4F3983ED4F3869554
:1020600077956795B795F795E7959F5FC1F7FE2B35
:10207000880F911D9695879597F908950E94570F9F
:10208000880B990B0895A1E21A2EAA1BBB1BFD0118
:102090000DC0AA1FBB1FEE1FFF1FA217B307E40747
:1020A000F50720F0A21BB30BE40BF50B661F771F9F
:1020B000881F991F1A9469F760957095809590957F
:1020C0009B01AC01BD01CF0108950E947610A59F30
:1020D000900DB49F900DA49F800D911D1124089523
:1020E000EE0FFF1F0590F491E02D0994A29FB0011F
:1020F000B39FC001A39F700D811D1124911DB29F3C
:10210000700D811D1124911D08950F931F93CF937E
:10211000DF938230910510F482E090E0E0911C039F
:10212000F0911D0330E020E0B0E0A0E0309799F49A
:102130002115310509F44AC0281B390B243031051B
:10214000D8F58A819B816115710589F1FB01938323
:102150008283FE0111C040815181028113814817A1
:102160005907E0F04817590799F4109761F0129653
:102170000C93129713961C933296CF01DF91CF9157
:102180001F910F91089500931C0310931D03F4CF2A
:102190002115310551F04217530738F0A901DB0131
:1021A0009A01BD01DF01F801C1CFEF01F9CF909392
:1021B0001D0380931C03CDCFFE01E20FF31F81931B
:1021C00091932250310939832883D7CF20911A0364
:1021D00030911B03232B41F4209102013091030124
:1021E00030931B0320931A032091000130910101C9
:1021F0002115310541F42DB73EB7409104015091AE
:102200000501241B350BE0911A03F0911B03E21723
:10221000F307A0F42E1B3F0B2817390778F0AC0109
:102220004E5F5F4F2417350748F04E0F5F1F5093E6
:102230001B0340931A03819391939FCFF0E0E0E05A
:102240009CCFCF93DF930097E9F0FC013297138284
:102250001282A0911C03B0911D03ED0130E020E03B
:102260001097A1F420813181820F931F20911A03CE
:1022700030911B032817390709F061C0F0931B0345
:10228000E0931A03DF91CF910895EA01CE17DF079B
:10229000E8F54A815B819E0141155105B1F7E901DD
:1022A000FB83EA8349915991C40FD51FEC17FD07B1
:1022B00061F4808191810296840F951FE9019983D1
:1022C0008883828193819B838A83F0E0E0E0129689
:1022D0008D919C9113970097B9F52D913C91119791
:1022E000CD010296820F931F20911A0330911B0398
:1022F0002817390739F6309751F510921D031092BF
:102300001C03B0931B03A0931A03BCCFD383C283D7
:1023100040815181840F951FC817D90761F44E5F22
:102320005F4F88819981480F591F518340838A816B
:102330009B81938382832115310509F0B0CFF093FF
:102340001D03E0931C039ECFFD01DC01C0CF13826F
:102350001282D7CFF894FFCF00001E038000000048
:102360000000D20132015F011F0290016E01820163
:1023700000000000EC03BF031B049503B803A50392
:1023800096030D0A006E616E00696E66006F7666D8
:1023900000416461667275697420494E413236307D
:1023A000205465737400466F756E6420494E413247
:1023B0003630206368697000436F756C646E2774F3
:1023C0002066696E6420494E413236302063686968
:1023D000700043757272656E743A2000206D410082
:1023E00042757320566F6C746167653A2000206DEA
:0E23F0005600506F7765723A2000206D57003E
:107E0000112484B714BE81FFF0D085E080938100F7
:107E100082E08093C00088E18093C10086E0809377
:107E2000C20080E18093C4008EE0C9D0259A86E02C
:107E300020E33CEF91E0309385002093840096BBD3
:107E4000B09BFECF1D9AA8958150A9F7CC24DD24C4
:107E500088248394B5E0AB2EA1E19A2EF3E0BF2EE7
:107E6000A2D0813461F49FD0082FAFD0023811F036
:107E7000013811F484E001C083E08DD089C08234E0
:107E800011F484E103C0853419F485E0A6D080C0E4
:107E9000853579F488D0E82EFF2485D0082F10E0AE
:107EA000102F00270E291F29000F111F8ED06801E7
:107EB0006FC0863521F484E090D080E0DECF843638
:107EC00009F040C070D06FD0082F6DD080E0C81688
:107ED00080E7D80618F4F601B7BEE895C0E0D1E017
:107EE00062D089930C17E1F7F0E0CF16F0E7DF06D8
:107EF00018F0F601B7BEE89568D007B600FCFDCFD4
:107F0000A601A0E0B1E02C9130E011968C91119780
:107F100090E0982F8827822B932B1296FA010C0160
:107F200087BEE89511244E5F5F4FF1E0A038BF0790
:107F300051F7F601A7BEE89507B600FCFDCF97BE46
:107F4000E89526C08437B1F42ED02DD0F82E2BD052
:107F50003CD0F601EF2C8F010F5F1F4F84911BD097
:107F6000EA94F801C1F70894C11CD11CFA94CF0C13
:107F7000D11C0EC0853739F428D08EE10CD085E9AC
:107F80000AD08FE07ACF813511F488E018D01DD067
:107F900080E101D065CF982F8091C00085FFFCCF94
:107FA0009093C60008958091C00087FFFCCF809118
:107FB000C00084FD01C0A8958091C6000895E0E648
:107FC000F0E098E1908380830895EDDF803219F02E
:107FD00088E0F5DFFFCF84E1DECF1F93182FE3DFCA
:107FE0001150E9F7F2DF1F91089580E0E8DFEE27F6
:047FF000FF270994CA
:027FFE00040479
:00000001FF
